:100000000C9434000C9446000C9446000C9446006A
:100010000C9446000C9446000C9446000C94460048
:100020000C9446000C9446000C9446000C94460038
:100030000C9446000C9446000C9446000C94460028
:100040000C9446000C9446000C9446000C94460018
:100050000C9446000C9446000C9446000C94460008
:100060000C9446000C94460011241FBECFEFD4E040
:10007000DEBFCDBF11E0A0E0B1E001C01D92A23013
:10008000B107E1F70E9478000C9422020C94000062
:10009000982F8091C00085FFFCCF9093C6000895F3
:1000A00083EA84BD82E085BD8FEF87BD88BD08955A
:1000B00081EA809380008AE0809381008FEF90E056
:1000C000909389008093880090938B0080938A009E
:1000D0000895292F332727FD3A952093C500809353
:1000E000C40086E08093C20088E08093C100089538
:1000F0002F923F924F925F926F927F928F929F9238
:10010000AF92BF92CF92DF92EF92FF920F931F9325
:10011000DF93CF9300D000D0CDB7DEB79FEF9AB971
:100120008FE384B980EF87B983EA84BD82E085BD1F
:1001300097BD98BD81EA809380008AE0809381001A
:100140008FEF90E0909389008093880090938B00CC
:1001500080938A001A8219821C821B821E9B02C015
:100160001E99FECF1E9BFECF22243324210105C001
:100170000894211C311C411C511C1E99F9CF662486
:100180007724430105C00894611C711C811C911CDB
:100190001E9BF9CF1F9B02C01F99FECF1F9BFECF56
:1001A000AA24BB24650105C00894A11CB11CC11C74
:1001B000D11C1F99F9CFEE24FF24870105C00894B4
:1001C000E11CF11C011D111D1F9BF9CFC601B501DA
:1001D00024EF31E040E050E00E94C601EA0CFB1C35
:1001E0000C1D1D1DA80197010E94E501CA01B9015E
:1001F00028E230E040E050E00E94C60123E030E019
:1002000040E050E00E94E50189010A5F1040339B05
:1002100003C086E987BD57C0C201B10124EF31E0B8
:1002200040E050E00E94C601620C731C841C951CC7
:10023000A40193010E94E501CA01B90128E230E05E
:1002400040E050E00E94C60123E030E040E050E092
:100250000E94E5012A5F304091E02D323907B4F069
:10026000E981FA81329719F4FFEFF7BDF8BD2A5FF3
:1002700030402F3F310519F014F02FEF30E027BD4B
:1002800018BC81E090E09A8389831EC0283C310528
:10029000CCF4E981FA81319719F4FFEFF7BDF8BD8D
:1002A00017BC8AEF90E0821B930B9C018F3F910556
:1002B00019F014F02FEF30E028BDE2E0F0E0FA830F
:1002C000E98302C017BC18BC319B07C086E990E0E7
:1002D000909389008093880054C091E00D321907F3
:1002E00024F1EB81FC81329751F48FEF90E09093F1
:1002F00089008093880090938B0080938A009801F6
:100300002A5F30402F3F310519F014F02FEF30E015
:10031000309389002093880010928B0010928A00FD
:10032000E1E0F0E0FC83EB8319CF083C11052CF5EC
:100330008B819C81019751F4EFEFF0E0F0938900FD
:10034000E0938800F0938B00E0938A00109289007C
:10035000109288002AEF30E0201B310B2F3F31052F
:1003600019F014F02FEF30E030938B0020938A00C7
:1003700082E090E09C838B83F1CE109289001092F2
:10038000880010928B0010928A00E8CE629FD00104
:10039000739FF001829FE00DF11D649FE00DF11D40
:1003A000929FF00D839FF00D749FF00D659FF00DEF
:1003B0009927729FB00DE11DF91F639FB00DE11DDC
:1003C000F91FBD01CF011124089597FB092E0526C1
:1003D0000ED057FD04D014D00AD0001C38F450952C
:1003E0004095309521953F4F4F4F5F4F0895F6F759
:1003F00090958095709561957F4F8F4F9F4F089591
:10040000A1E21A2EAA1BBB1BFD010DC0AA1FBB1F18
:10041000EE1FFF1FA217B307E407F50720F0A21B8A
:10042000B30BE40BF50B661F771F881F991F1A94F7
:1004300069F760957095809590959B01AC01BD0121
:08044000CF010895F894FFCFED
:00000001FF
