:100000000C9434000C9446000C9446000C9446006A
:100010000C9446000C9446000C9446000C94460048
:100020000C9446000C9446000C9446000C94460038
:100030000C9446000C9446000C9446000C94460028
:100040000C9446000C9446000C9446000C94460018
:100050000C9446000C9446000C9446000C94460008
:100060000C9446000C94460011241FBECFEFD4E040
:10007000DEBFCDBF11E0A0E0B1E001C01D92A23013
:10008000B107E1F70E9478000C940B020C94000079
:10009000982F8091C00085FFFCCF9093C6000895F3
:1000A00083EA84BD82E085BD8FEF87BD88BD08955A
:1000B00081EA809380008AE0809381008FEF90E056
:1000C000909389008093880090938B0080938A009E
:1000D0000895292F332727FD3A952093C500809353
:1000E000C40086E08093C20088E08093C100089538
:1000F0003F924F925F926F927F928F929F92AF92B8
:10010000BF92CF92DF92EF92FF920F931F93CF9304
:10011000DF939FEF9AB98FE384B980EF87B983EAC1
:1001200084BD82E085BD97BD98BD81EA8093800043
:100130008AE0809381008FEF90E090938900809314
:10014000880090938B0080938A006624772488240B
:10015000992433243A947FEF472E512C1E9B02C0E2
:100160001E99FECF1E9BFECFAA24BB24650105C0AD
:100170000894A11CB11CC11CD11C1E99F9CFEE24FE
:10018000FF24870105C00894E11CF11C011D111D0D
:100190001E9BF9CFC601B50124EF31E040E050E0ED
:1001A0000E94AF01EA0CFB1C0C1D1D1DA80197014C
:1001B0000E94CE01CA01B90128E230E040E050E0DF
:1001C0000E94AF0123E030E040E050E00E94CE0109
:1001D000E901CA5FD0401F9B02C01F99FECF1F9B41
:1001E000FECFAA24BB24650105C00894A11CB11C44
:1001F000C11CD11C1F99F9CFEE24FF24870105C033
:100200000894E11CF11C011D111D1F9BF9CFC601B3
:10021000B50124EF31E040E050E00E94AF01EA0C6C
:10022000FB1C0C1D1D1DA80197010E94CE01CA01D7
:10023000B90128E230E040E050E00E94AF0123E045
:1002400030E040E050E00E94CE01C9018A5F90405A
:1002500021E0CD32D207ACF022E06216710411F435
:1002600037BC38BC9E012A5F30402F3F310519F062
:1002700014F02FEF30E027BD18BC61E0662E712C22
:100280001BC0C83CD105B4F421E06216710411F41E
:1002900037BC38BC17BC2AEF30E02C1B3D0B2F3F7E
:1002A000310519F014F02FEF30E028BD52E0652E33
:1002B000712C02C037BC38BC21E08D3292070CF1A2
:1002C00022E08216910441F4509289004092880005
:1002D00050928B0040928A009C012A5F30402F3F51
:1002E000310519F014F02FEF30E03093890020939E
:1002F000880010928B0010928A0041E0842E912C8D
:100300002DCF883C910514F521E08216910441F42B
:10031000509289004092880050928B0040928A004F
:1003200010928900109288002AEF30E0281B390BC8
:100330002F3F310519F014F02FEF30E030938B0090
:1003400020938A0032E0832E912C08CF50928900AE
:100350004092880050928B0040928A00FFCE629FAC
:10036000D001739FF001829FE00DF11D649FE00DAD
:10037000F11D929FF00D839FF00D749FF00D659F0E
:10038000F00D9927729FB00DE11DF91F639FB00D0D
:10039000E11DF91FBD01CF011124089597FB092E1E
:1003A00005260ED057FD04D014D00AD0001C38F416
:1003B00050954095309521953F4F4F4F5F4F089591
:1003C000F6F790958095709561957F4F8F4F9F4F71
:1003D0000895A1E21A2EAA1BBB1BFD010DC0AA1F86
:1003E000BB1FEE1FFF1FA217B307E407F50720F09E
:1003F000A21BB30BE40BF50B661F771F881F991F19
:100400001A9469F760957095809590959B01AC0161
:0A041000BD01CF010895F894FFCF5D
:00000001FF
