:100000000C9434000C943E000C943E000C943E0082
:100010000C943E000C943E000C943E000C943E0068
:100020000C943E000C943E000C943E000C943E0058
:100030000C943E000C943E000C943E000C943E0048
:100040000C943E000C943E000C943E000C943E0038
:100050000C943E000C943E000C943E000C943E0028
:100060000C943E000C943E0011241FBECFEFD4E050
:10007000DEBFCDBF0E9453000C9472000C940000B0
:1000800020E030E05AE12817390714F4599A01C0EA
:100090005998452F4A95F1F72F5F3F4F47E02E348F
:1000A000340789F70895CF93DF938FEF8AB98FE3F1
:1000B00084B980EF87B9C7EDD0E01F9B07C02196B8
:1000C000C83DD10559F4C7EDD0E008C01E9B06C05D
:1000D0002197C233D10514F4C2E3D0E0CE010E94CF
:0800E0004000EBCFF894FFCFC4
:00000001FF
