:1000000014C02CC02BC02AC029C028C027C026C0BD
:1000100025C024C023C022C021C020C01FC01EC0D4
:100020001DC01CC01BC01AC019C011241FBECFEDBB
:10003000CDBF10E0A0E6B0E0E4EDF1E002C0059035
:100040000D92A838B107D9F710E0A8E8B0E001C0D8
:100050001D92AC38B107E1F77ED0BAC0D1CF1F9363
:100060008FE182BBA0916000B0916100E0916200DD
:10007000F0916300609164007091650040916600AA
:1000800050916700209168003091690080E090E015
:1000900015C08A179B0709F490988E179F0709F4DB
:1000A00091988617970709F492988417950709F491
:1000B00093988217930709F49498019617E0803378
:1000C00091073CF390938B0080938A001F910895D1
:1000D0000F931F93CF93DF938C01672BD9F0FC0113
:1000E000EE0FFF1FDF01A659BF4FEF01C05ADF4FD0
:1000F0002D913C9188819981280F391F398328835C
:10010000EC58FF4F0190F081E02DE217F30714F453
:10011000F983E883452BD1F0F801EE0FFF1FEF01C3
:10012000C05ADF4FDF01A659BF4F288139818D9119
:100130009C91281B390B39832883E258FF4F80811B
:1001400091812817390714F499838883DF91CF911F
:100150001F910F91089517BA8FE181BB1ABA66B348
:1001600046B370E06078707050E04074507080E08A
:1001700090E0AEDF66B346B370E06072707050E03E
:100180004071507081E090E0A3DF66B346B370E049
:100190006870707050E04470507082E090E098DFBA
:1001A00066B346B370E06270707050E0417050709A
:1001B00083E090E08DDF60B340B370E060747070F6
:1001C00050E04072507084E090E082DF48DFC7CF9B
:0401D000F894FFCFD1
:1001D4009600960096004B00C80001000100010043
:1001E40001000100E100E100E100B400C8004B009F
:0801F4004B0064004B004B00BE
:00000001FF
